:020000040800F2
:1000000008C600205D020008A7530008334400081A
:10001000A5530008CF120008DD70000800000000A2
:10002000000000000000000000000000516C00080B
:100030009315000800000000D1670008756C0008E7
:1000400077020008770200087702000877020008AC
:10005000770200087702000877020008770200089C
:10006000770200087702000877020008770200088C
:1000700077020008770200087702000825150008BB
:100080007702000877020008B9120008000000009B
:10009000000000000000000000000000A91500089A
:1000A000A16C0008B96C0008AD6C0008770200086C
:1000B00077020008C56C0008770200083D4400087C
:1000C0003544000877020008770200080D6900082F
:1000D00019690008D17000087702000800000000CC
:1000E000A115000877020008770200080000000050
:1000F000000000000000000000000000770200087F
:10010000000000007702000877020008770200086C
:1001100000000000000000000000000000000000DF
:1001200077020008770200087702000831150008FE
:10013000770200080000000000000000000000003E
:10014000000000000000000000000000770200082E
:10015000770200087702000877020008770200089B
:10016000770200087702000800000000000000008D
:10017000000000000000000000000000000000007F
:1001800000000000770200080000000000000000EE
:100190007702000800F002F800F051F80AA090E899
:1001A000000C82448344AAF10107DA4501D100F032
:1001B00046F8AFF2090EBAE80F0013F0010F18BFAE
:1001C000FB1A43F0010318473CEF02005CEF02000A
:1001D000103A24BF78C878C1FAD8520724BF30C873
:1001E00030C144BF04680C60704700000023002445
:1001F00000250026103A28BF78C1FBD8520728BF37
:1002000030C148BF0B607047642900F02D81782908
:1002100000F06681002070471FB528F0CEFC9DE8F5
:10022000030000F0A7FC00F0F7FC00F093FB1FBDFB
:1002300010B5002000F08CFD00F057FD10BD00F05F
:10024000ADFD1146FFF7E8FF23F070FB00F0A6FEBE
:1002500003B4FFF7EDFF03BC0AF0A0FD0948804797
:1002600009480047FEE7FEE7FEE7FEE7FEE7FEE798
:10027000FEE7FEE7FEE7FEE704480549054A064BB0
:1002800070470000916C00089501000808B6002036
:1002900008C6002008BE002008BE002053EA020C59
:1002A00000F069802DE9F04B4FF00006002B1FBFD6
:1002B000B3FA83F503FA05F424FA05F65E4012BF9B
:1002C0001643B2FA82F502FA05F4C5F120051EBF05
:1002D00022FA05FC44EA0C04203556EA044C4FEAA5
:1002E000144418BF641C4FF000084FF000099042FE
:1002F00071EB030C39D3002919BFB1FA81F701FA68
:1003000007F6B0FA80F700FA07F6C7F120071EBF1C
:1003100020FA07FC46EA0C062037B6FBF4FCA7EBF4
:100320000507103F07F01F0BCBF120062CFA06F64D
:100330000CFA0BFB44BFB3460026202FA4BF5E4639
:100340004FF0000B5BEA060C08BF4FF0010B19EBF6
:100350000B0948EB0608ABFB027C06FB02CC0BFB4F
:1003600003CCC01B71EB0C01C1E70B4602464146B2
:100370004846BDE8F08B13B5084318BF4FF0FF3077
:100380000146AFF30080BDE81C40704753EA020C01
:1003900023D010B54C1084EA530404D54042C1F177
:1003A000000138BF491E1B4204D55242C3F100036D
:1003B00038BF5B1EFFF772FF14F0804F04D040423D
:1003C000C1F1000138BF491E14F0004F04D0524261
:1003D000C3F1000338BF5B1E10BD13B540424FF0A0
:1003E000000070EB0104B8BF012001F000410028BB
:1003F0001CBF6FF000414FF0FF30AFF300801CBD19
:100400000FB4044910B503AA029800F065FB10BCB4
:100410005DF814FB7C01002070B504468569006816
:10042000C10601D5302600E02026C00707D070BDE8
:10043000D4E9012130469047206A401C20626D1E9D
:10044000F6D570BD70B5044685690078C00707D140
:1004500070BDD4E9012120209047206A401C206211
:100460006D1EF6D570BD00002DE9F0410646002452
:1004700010687529314616A510D0AFF3008000280A
:1004800002DA404213A507E031688A0701D512A5B8
:1004900002E0490704D511A5012401E0AFF3008073
:1004A00000210A2206F1240709E0B0FBF2FCB0FBB0
:1004B000F2F302FB1C00303078541846491C002827
:1004C000F3D123462A463046BDE8F04100F0AABAEF
:1004D000000000002D0000002B00000020000000A4
:1004E00070B504460D4621461068AFF300802188A0
:1004F000090502D50F4A7A4402E00E4A7A440E32C8
:10050000002104F1240305E000F00F060009965DC8
:100510005E54491C0028F7D120780023000704D539
:10052000702D02D009B1022311322046BDE870407F
:1005300000F078BAE48602002DE9F05F89460446AF
:100540004FF0000ADFF824B1FB44C0F820A0204699
:10055000E168884700287DD0252806D0D4E901210C
:100560009047206A401C2062F1E700255F46204644
:10057000E16888472028064607DB312E05D2B819E6
:1005800010F8200C08B10543F1E7A80701D525F0C4
:100590000405C4F81CA00027C4F818A02A2E09D00E
:1005A000304627F0FFFC38B304EB8708303EC8F82C
:1005B000186019E059F8041B204604EB870291618A
:1005C000E1688847012F064618D1E069002820DA43
:1005D00025F020051DE0D8F8180000EB800006EBA0
:1005E00040003038C8F818002046E16888470646C1
:1005F00027F0D8FC0028EED1012F0AD02E2E08D1EA
:100600002046E16888477F1C0646022F45F02005FA
:10061000C4DBA069002803DA404245F00105A0616F
:10062000E80701D025F01005A6B1A6F14100192870
:1006300002D8203645F400654A46314620462560FA
:100640004D46FFF7E1FD60B1012807D0ED1D25F013
:10065000070000E007E000F1080978E705F1040968
:1006600075E730467AE7206ABDE8F09FBA86020057
:1006700010B5044603E00DF009FA401C09D014F847
:10068000010B05490028F6D1BDE810400A200DF005
:10069000FDB94FF0FF3010BD7C0100200B46014634
:1006A000184600F02BBA40EA010310B59B070FD1A2
:1006B000042A0DD310C808C9121F9C42F8D020BAD2
:1006C00019BA884201D9012010BD4FF0FF3010BD8A
:1006D0001AB1D30703D0521C07E0002010BD10F858
:1006E000013B11F8014B1B1B07D110F8013B11F81E
:1006F000014B1B1B01D1921EF1D1184610BD40EADF
:100700000103024630B59B0710D14FF0013400E0E1
:1007100008C208C91D1B9D4315EAC41FF8D013F079
:10072000FF0102F8011B0DD01B0AF8E711F8013B8D
:10073000002B02F8013B05D011F8013B002B02F819
:10074000013BF3D130BD10B5431C02E010F8011B92
:1007500071B18107FAD14FF0013202C88C1A8C4373
:1007600014EAC211F9D0C01A0A0603D0C01E10BD87
:10077000C01A10BD0A0401D0801E10BD0902FCD0B1
:10078000401E10BD032A40F2308010F0030C00F030
:10079000158011F8013BBCF1020F624498BF11F8BB
:1007A00001CB00F8013B38BF11F8013BA2F1040274
:1007B00098BF00F801CB38BF00F8013B11F00303EC
:1007C00000F02580083AC0F0088051F8043B083A50
:1007D00051F804CBA0E80810F5E7121D5CBF51F8F2
:1007E000043B40F8043BAFF30080D20724BF11F86C
:1007F000013B11F801CB48BF11F8012B24BF00F8D1
:10080000013B00F801CB48BF00F8012B704710B541
:10081000203AC0F00B80B1E81850A0E81850B1E8B9
:100820001850A0E81850203ABFF4F5AF5FEA027CF8
:1008300024BFB1E81850A0E8185044BF18C918C028
:10084000BDE810405FEA827C24BF51F8043B40F8C9
:10085000043B08BF7047D20728BF31F8023B48BFAE
:1008600011F8012B28BF20F8023B48BF00F8012BEC
:10087000704702F0FF0343EA032242EA024200F01B
:1008800002B84FF0000200B5134694469646203950
:1008900022BFA0E80C50A0E80C50B1F12001BFF439
:1008A000F7AF090728BFA0E80C5048BF0CC05DF89F
:1008B00004EB890028BF40F8042B08BF704748BFED
:1008C00020F8022B11F0804F18BF00F8012B704761
:1008D00030B44FF0013C50F8042B51F8043BCCFAF3
:1008E00052F4D51A20D1FCB950F8042B51F8043B2E
:1008F000CCFA52F4D51A17D1B4B950F8042B51F8E8
:10090000043BCCFA52F4D51A0ED16CB950F8042B32
:1009100051F8043BCCFA52F4D51A05D1002CDAD0A8
:1009200030BC4FF00000704729BAB1FA81F111F0E4
:100930001801D1F120008440F2D1CA40CB4012F01E
:10094000FF0213F0FF0330BCD01A704770477047A6
:100950007047000070B5064C7C44064D7D4404E0B1
:100960002046016808448047241DAC42F8D170BD80
:10097000C8E70200C8E7020070B5064600F0D6F8E6
:10098000056806F10B0020F00704B4429CBF00206C
:1009900070BD2B466A68BAB11068A04210D304F14A
:1009A000080188423CBF5068586007D3516810194D
:1009B00041601168091B016058601460101D70BD12
:1009C00013465268002AE7D12146284600F0BEF8B7
:1009D0000028DED170BD70B50446051F00F0A6F8F2
:1009E0000068002C14BF446870BD002C18BFAC42D6
:1009F0003CBF20466468F8D301680A18AA4218BFB1
:100A0000456003D12A6805461144016028684119F0
:100A1000A1421CBF6C6070BD6168696021680844B8
:100A2000286070BD2DE9F0470D4699469246044670
:100A300000F124080168880604D5E06921F010015E
:100A4000216000E00120A84201DD471B00E00027F3
:100A5000A1697A1902EB0900081AA0612078C00682
:100A600002D42046FFF7D8FC002608E0D4E9012193
:100A70001AF806009047206A401C761C20624E45FA
:100A8000F4DB2078C0060AD52046FFF7C5FC06E057
:100A9000D4E9012130209047206A401C2062381E92
:100AA000A7F10107F4DC07E0D4E9012118F80500FB
:100AB0009047206A401C2062281EA5F10105F3DC46
:100AC0002046FFF7BFFC2078000602D50220BDE8D3
:100AD000F0870120FBE70000074B70B50D467B4413
:100AE00000F083F80446284600F092F810B14FF069
:100AF000FF3070BD204670BDABCF00002DE9F04146
:100B0000074615460E461020FFF736FF04000AD0B0
:100B10006760C4E9026500F00DF8016821600460B7
:100B20000020BDE8F0810120FBE70000004870478D
:100B30002C020020004870475C02002000487047EB
:100B400024020020704770477047704738B504464C
:100B50000A4600206946AFF30080002808BF38BD70
:100B600002460099204600F03EF9012038BD0120E0
:100B700000F029BAF8B5AFF30080054600200C4616
:100B8000102000BF0646A819A0420DD9324669467A
:100B90000020AFF30080070008BF00F014FA0098AF
:100BA000A04218BF0546C419FFF7C0FF05600746FD
:100BB000F01D20F007004619284600F00AF8B4425C
:100BC00008BFF8BDA21B31463868BDE8F84000F008
:100BD0000AB900210160C0E9011070471020704778
:100BE00001694A1C02610878704700B58FB0CDE9F1
:100BF00001310021059105497944CDE903101146E1
:100C00006846FFF799FC0FB000BD0000E5FFFFFF4D
:100C1000007B00F08000704710B542485421FFF778
:100C200030FE41485421FFF72CFE40485421FFF785
:100C300028FE3F493B483C4A3F4B08603D490A601B
:100C40003A491960531C0365481C1065012008656A
:100C50003B48344A39A1784400F002F920B93848B9
:100C600078440A3800F0A8F937482F4A35A178446B
:100C700000F0F6F820B9344878440A3800F09CF9BE
:100C800032482A4A2FA1784400F0EAF820B92F48C8
:100C900078440A3800F090F940232248DC00002113
:100CA000224600F0BAF820B125487844543800F0C4
:100CB00083F91D4822464023002100F0AEF820B100
:100CC00021487844543800F077F918482246102318
:100CD000002100F0A2F8002806D01C487844BDE8A6
:100CE0001040563800F068B910BD104870B5006D5E
:100CF00020F001040B4800F02BF90B4800F028F914
:100D00000A4800F025F909E0206D20F00105204691
:100D100000F01EF92046FFF75EFE2C46002CF3D1B2
:100D200070BD0000280100207C010020D0010020BF
:100D300000000020040000200800002072000000D5
:100D4000BD7F020077000000A97F0200957F0200AE
:100D50002DE9F0410646FFF7EDFE8046454613E0DB
:100D600016B1E068B0420ED120682860D4E90101D4
:100D7000D8F8007088472046FFF72DFED8F800000D
:100D8000B842EBD100E025462C68002CE8D1BDE844
:100D9000F081000000487047240200207546FFF7EC
:100DA000F9FFAE4605006946534620F00700854628
:100DB00018B020B5FFF760FABDE820404FF00006FC
:100DC0004FF000074FF000084FF0000BAC46ACE8C6
:100DD000C009ACE8C009ACE8C009ACE8C00921F022
:100DE00007018D467047034640688C46002818BFAF
:100DF00088423CBF03464068F8D3186818448842CC
:100E000007D00CF1030020F00700001D411A521A10
:100E10000146081D0A60FFF7DEBD70B5C468A5076E
:100E200013D0650211D4B2F5807F09D0B2F5007FEE
:100E300006D0B2F5806F08D1012300F1240106E04D
:100E40005D1E6FF07F46B54201D3012070BD016188
:100E5000C361416024F470611143C160002070BD22
:100E60002DE9F0410C461646070047D0104600F029
:100E70006FF82078611C61280AD0722802D0772888
:100E80003CD102E00125002405E00225042402E013
:100E9000082448F2020511F8010B2B2806D062281D
:100EA00009D011F8010C74280AD00BE045F00305B5
:100EB00044F00204EFE745F0040544F00104EAE7DA
:100EC00044F010043846214609F06DFF411C15D04E
:100ED0000021316171604FF40071F560F161706162
:100EE000200704D530460222002100F073F8306D4F
:100EF00040F0010030653046BDE8F0810020FBE79E
:100F00002DE9F0410D460646104C206DC10704D076
:100F1000410804D020F00104F7E722460EE05420F7
:100F2000FFF72AFD07000ED0206D47F001010843AE
:100F3000542120653846FFF7A4FC3A46294630463E
:100F4000BDE8F0418CE70020D6E700002801002032
:100F50002DE9F04704464FF000094FF0FF37C56810
:100F6000D4E90486A80707D0204600F0E3F830460D
:100F700009F012FF002802DA3846BDE8F08728059C
:100F800002D54046FFF727FD4C212046FFF779FCAC
:100F9000206D20F0010020654846EEE710B50446BC
:100FA000AFF300802046BDE81040FFF751B900289C
:100FB00001D009F0F3BE704710B500F019F9BDE893
:100FC0001040FFF7F4BF10B500F02CF9BDE8104059
:100FD000FFF7EDBF2DE9F041044616460D4647697F
:100FE000007B80072ED0384609F0DBFE50BB3EB3B5
:100FF000012E02D0022E25D104E0204600F03AF95D
:1010000005441DE0384609F0CAFEE168002841F0B9
:101010001001E16005DA204600F058F80120BDE833
:10102000F081C9030BD56268E16A914200D811468C
:10103000A26911442269891A814200DD08460544EB
:10104000002D01DA0220EAE7E16A6068E268814285
:1010500006D29103E06203D522F4003141F0100280
:10106000A6690027AE4213DCE16A814201D90B4632
:1010700000E0034603EB060C2369ACEB030CAC4524
:1010800006DD814201D98C4600E084469C4505D1AD
:10109000A760276042F02000A5620DE0AD1BE66965
:1010A000AE1B8142A66000D90846C01A281A2060EB
:1010B0005819606022F0200003490840E0600020D9
:1010C00084F84870ABE70000BFCFD7FFC16821F4B8
:1010D000001141F08001C160002181600160704712
:1010E0002DE9F047814614460E464FF0FF3832484E
:1010F000D5685769054209D03846A16909F055FEFF
:10110000002811DB2C48C0430540E5602B463246E1
:101110004946384609F04CFEA16920F00042B21A57
:1011200011440028A16103D02046FFF7CFFF4046BD
:10113000BDE8F08770B504460569C06A61688842F9
:1011400000D80846E16821F42011E160C90312D5F6
:10115000A84208D02246411B2846FFF7C1FF10B124
:101160004FF0FF3070BD0020E562C4E90150E06837
:1011700020F48030E060002070BD10B50446C068E7
:1011800020F02000E060A16AA06988420DD02046CE
:10119000FFF7D0FFE06820F4405040F01000E0601E
:1011A000A06AA0612069E062606044F24001E068EA
:1011B0008843E06010BD00001000020070B50546D5
:1011C0000C460A2000E06D1C09F0F4FD35B12878CA
:1011D0000028F8D102E0641C09F0ECFD14B120787D
:1011E0000028F8D1BDE870400A2009F0E3BD0000F6
:1011F00010B5014602A0FFF7E1FF012010BD00007D
:1012000053494752545245443A20526564697265C5
:1012100063743A2063616E2774206F70656E3A20A4
:101220000000000010B5012805D0002103A0FFF741
:10123000C5FF012010BD09A1F8E70000534947523E
:10124000544D454D3A204F7574206F662068656196
:1012500070206D656D6F7279000000003A2048655E
:101260006170206D656D6F727920636F7272757039
:101270007465640010B50146C268900703D09006FB
:1012800007D5886A0AE0FFF759FC01210160881E32
:1012900010BD8B69486818440B69C01A91F8483032
:1012A0001BB191F84910401A10BD1103FCD500285C
:1012B000FADD401E10BD0000014800F008BA00BF72
:1012C000C40900204FF47A7026F042F8FAE7FEE7EE
:1012D00070B500F0CFF82A4C2A20A047294DA84726
:1012E0000220A047A84700F0C5F82B20A047A84738
:1012F00000F066F8013000240026C5B2022D38BF88
:10130000012600F047F800F0C9F82148012D0671C8
:1013100088BF0124204670BD2DE9F04100F0AAF8F5
:10132000174C2A20A047174DA8470320A047A847DD
:1013300000F0A0F82B20A047A847134DA847134C56
:101340000646A047A8470746A047A8478046A047AB
:10135000A8470546A04706F00F0047EA002600F020
:101360009DF8EF2E09D808F00F0045EA0020C108CB
:10137000222902D806490E804880BDE8F08100BFCE
:1013800009140008D1140008C113000895130008BF
:10139000B6060020B0B5624C4C4D4FF4806100227F
:1013A00004F059F804F009FE022000F0F3F804F00C
:1013B000FCF9022004F0C8FCBDE8B040184700BFAB
:1013C000F8B5574C0026002704F099FF072F84BF7B
:1013D000F0B2F8BD20464FF48061002200F0CDFD50
:1013E000022000F0D7F804F0C8FE2046082100F0E3
:1013F000B7FD0546012000F0CDF8002D18BF0125EE
:1014000045EA46060137E1E72DE9F843044644483A
:10141000002200260168804621F0C00101600168B9
:1014200041F0400101604FF4806100F0A6FDDFF85B
:101430009C900F4D072E88BFBDE8F883E0B20821CD
:101440004746C2094046C8470220A84740464FF4D5
:1014500080610122C8470220A84740464FF48061BE
:101460000022C8470220A84701366400E2E700BF17
:1014700095150008B0B52A4C144D0821012203F03F
:10148000EAFF04F092F9042000F084F804F095FDDE
:10149000042004F059FCBDE8B0401847B0B5204C1A
:1014A0000A4D4FF48061002203F0D5FF04F085FD62
:1014B000042000F06FF804F078F92046082101229A
:1014C000A8470420BDE8B04000F064B87B1F0008C6
:1014D000B0B5134C0821012204F011FF204600F0A2
:1014E0004CFD012000F056F804F047FE012000F00A
:1014F00051F800252046082100F032FD38B1681C63
:10150000FA2D0546F6D3FFF7C9FF012506E0204670
:101510004FF480610022002500F02FFD2846B0BD69
:1015200000040240014800F097BA00BF6C0A002096
:10153000014800F091BA00BF0C0A002010B5016804
:101540006FF00F02182308A452FA81F2B2FBF3F3F2
:10155000E35C40F2FF34A1435F2A88BF0431C0E955
:101560001613084610BD00BF000610160006101620
:10157000B0B50468806825684028084625F48025B1
:101580002560636008BF1046A06008BF0A46E2609D
:10159000B0BD70476FEA4000013000BFFCD3704718
:1015A0004FF4805000F002BC80B5402000F0FEFBFC
:1015B0008020BDE8804000F0F9BBEFF3108072B6E8
:1015C000FEE77047F8B50022009290F83C20012A0F
:1015D00001D1022168E0012280F83C200A680A2A31
:1015E00009D393B25B0013FA82F3A3F11E040368DC
:1015F00003F10C0504E0036802EB420403F110055B
:1016000007262F68A64027EA06062E608E6806FA8F
:1016100004F42E6834432C604C68062C05D804EB87
:10162000840403F13401053C0BE004EB84050C2C2D
:1016300087BF03F12C01A5F1410403F13001A5F1AD
:1016400023041F250E68A54026EA05050D6095B206
:1016500005FA04F40D682C430C60B449A1F54174FB
:10166000A3421ED1122A04D10A6842F480020A6001
:1016700017E022F00103102B13D10B68102A43F45A
:1016800000030B600DD10949094A0968B1FBF2F169
:1016900001EB810149000091009911B100990139D4
:1016A000F9E7002180F83C100846F8BD98000020BA
:1016B00040420F000349884200D070470248012190
:1016C00001707047C4090020B40600207047B0B50F
:1016D0000446006802684168920717D511F020019E
:1016E00014D0216CC90603D4216C41F4007121642B
:1016F000816811F0405F02D1217E002968D0204628
:10170000FFF7D8FF20686FF012010160026841689E
:10171000520714D511F0800111D0216CC90603D4F1
:10172000216C41F400512164816811F4401F30D0D4
:101730002046FFF746FF20686FF00C010160026849
:101740004168D20718BF11F0400113D10268416807
:1017500092060ED511F080610BD0616C6FF0200500
:1017600041F00201616405602046FFF7AFFF206889
:101770000560B0BD0168C907E8D0206C40F4803036
:101780002064204600F0DAF820686FF00101016063
:10179000DCE7816B11F4401F02D081684905C7D492
:1017A00041684905C4D4816811F0405FC0D1217EF1
:1017B0000029BDD1416821F080014160206C20F4F6
:1017C00080502064206CC005B2D404F083FAAFE7E7
:1017D000C16A11F4700F03D0816849053FF58FAFDE
:1017E000416821F02001416004F0BCFB3FF587AF68
:1017F00004F070FA83E70000002841D070B5044679
:10180000006C30B9204600F09BF8002084F83C00C2
:101810006064206CC00635D4206C41F2021188430C
:10182000424902302064086820F44030086094E89F
:101830000D0025690E6832430A60416821F4807109
:101840004160416841EA05214160416821F04071F1
:10185000416041681943364B4160816821F4006161
:101860008160E168826811438160816821F0706164
:101870008160A26A81689A4206D121F040510CE051
:101880000120704701204CE011438160816821F004
:1018900040518160E16A826811438160816821F072
:1018A0000201816094F82020217E836843EA41018F
:1018B000816041686AB141F400611E4A416041683B
:1018C00021F460414160616A02EB41314268114399
:1018D00001E021F400614160174BC16A21F47001FD
:1018E000C162E269616903EB0252C36A1A43C262D0
:1018F000826822F40072826094F83020836843EAA0
:1019000042228260826822F480628260826842EAB7
:1019100081210122816000206064216C62F3010159
:101920002164002184F83C1070BD00BF04230140F5
:101930000100000F00E0FFFF0000F0FF7047000013
:10194000FEB5026817480021CDE90411824226D174
:10195000154A009100F56840536943F48073536160
:10196000536903F480730093009B0091136843F064
:1019700004031360126802F0040200920391032131
:10198000029102210191009901A900F019FA122097
:101990000621002201F008FA122001F0F9F906B040
:1019A00080BD00BF002001403038024070B5866D18
:1019B000044600F0E7FA054694F8350002281ED1E7
:1019C0002068216C026822F016020260426922F04F
:1019D0008002426109B9A16C19B1016821F00801C6
:1019E0000160016821F0010101600068C0070AD0B0
:1019F00000F0C8FA401B05280FD82068F5E78020C2
:101A0000606501200EE0E06D3F2101FA00F0B0605A
:101A1000012084F83500002004E0202060650320C8
:101A200084F83500002184F8341070BD90F835102A
:101A3000022909D1052180F835100068016821F0DC
:101A4000010101600020704780214165012070473D
:101A500090F8350070470000F8B504460020534A5E
:101A600008210090D4E91660156837688140394232
:101A70000CD0226813685B0708D5136823F00403B1
:101A80001360B160616D41F0010161650121814028
:101A9000394208D022685269120604D5B160616DDE
:101AA00041F00201616504218140394208D0226879
:101AB0001268920704D5B160616D41F0040161655F
:101AC00010218140394217D020680268120713D5CF
:101AD000B16002680168520306D4C90506D40168E2
:101AE00021F00801016001E0080301D4216C00E04D
:101AF000A16C09B120468847E16D202000FA01F26F
:101B00003A4233D020680368DB062FD5B26094F8E0
:101B100035300268052B15D122F0160202604269A9
:101B200022F080024261226C0AB9A26C1AB10268EA
:101B300022F0080202603F208840B06003F05EFCA3
:101B4000216D2FE00168520308D4C9050AD4016849
:101B500021F01001016003F051FC03E0080301D4FF
:101B6000616C00E0E16B09B120468847606DE0B12F
:101B7000606DC00715D005214FF4165084F835105C
:101B8000B5FBF0F021680A6822F001020A60009AB1
:101B900001328242009202D80A68D207F7D103F0DC
:101BA0002DFCE16C09B120468847F8BD9800002063
:101BB0002DE9F041044600F0E5F9ACB105460220FC
:101BC00084F835000020216884F83400086820F08B
:101BD000010008600868C00709D000F0D3F9401B75
:101BE000052839D82168F5E70120BDE8F0810868AB
:101BF000271D304AE8CF00EA020ED4E9050CD4E9EB
:101C0000072843EA0E032B4333433B431843636ADD
:101C100040EA0C00104340EA0802042B04D1D4E946
:101C20000B05104340EA05020A60042B486920F0C6
:101C3000070040EA03022CD1D4E90A63324343B3DC
:101C4000BCF5005F0CD0BCF1000F18D1022E19D0EA
:101C5000012E0ED0002E14E003252027032024E0BF
:101C6000032E16D8012540270120DFE806F01E0BC1
:101C70001E02A3F1C070B0FA80F0400904E0032E08
:101C800003D306D1C3F3006018B10125402701201A
:101C90000BE020464A61FFF751FCE16D3F2200272F
:101CA000012502FA01F181600020676584F8355052
:101CB000BDE8F0813F8010F0B0B503F034FD28D0CE
:101CC0000120A56D84F8340094F8350001281DD159
:101CD000022084F83500002060652046FFF748FCAC
:101CE000E26D3F232068216C03FA02F2AA600268C9
:101CF00042F01602026019B1016841F0080101606A
:101D0000016841F0010101600020B0BD002084F8AD
:101D100034000220B0BD0000B0B5044600F032F936
:101D200005460548611C007818BF044400F02AF9F4
:101D3000401BA042FAD3B0BD0C00002080B5B0F526
:101D4000805F0ED080281AD0402820D10220FFF7D3
:101D5000E3FF1348402100F003F9C0B912481149CC
:101D600019E00220FFF7D8FF0D484FF48051A0F58D
:101D7000006000F0F5F850B90A48811C0AE0022022
:101D8000FFF7CAFF0648802100F0EAF800B180BDE5
:101D90000448411C04480022BDE8804006F013BB03
:101DA00000080240A4020020A484002003490A681D
:101DB000024208BF70470860FFF7C0BF143C0140F3
:101DC0002DE9FC4F604A07244FF0010B4FF000094A
:101DD0004FF0000E4FF0000A90425C4A08BF042406
:101DE00002444FEAB223042B38BF4FEAB2240094D6
:101DF000BEF1200F08BFBDE8FC8F0F680BFA0AF692
:101E0000374200F09A804F6807F00308A8F10104F8
:101E1000012C19D80322856802FA0EF44FEA4A020F
:101E200025EA040CCD6805FA0EF545EA0C05856037
:101E3000C7F3001505FA0AFC4568B54345EA0C05E9
:101E40006FEA040C45600CE00324724604FA0EF4B9
:101E5000B8F1030F6FEA040C03D172464FF0030888
:101E60001FE0C4688D6804EA0C0495402C43B8F167
:101E7000020FC46015D109F01C040F2303FA04F803
:101E80006FF0030303EA5A0707443D6A25EA08088E
:101E90000D6905FA04F444EA08043C624F6807F04F
:101EA0000308056808FA02F405EA0C052C4317F448
:101EB000403F046041D00022254B2AF003070192E5
:101EC000254A1F44146844F48044146014680F22A7
:101ED00004F48044019409F00C0402FA04FC1F4A43
:101EE000019DBD589046009A25EA0C0502FA04F4BB
:101EF0002C4347F808401C684F6844EA0605FA037B
:101F000058BF24EA06051D605A68BD0342EA06046C
:101F100058BF22EA06045C60FD029A6842EA0604A1
:101F200058BF22EA06049C600A4BBD021A6842EAC6
:101F3000060458BF22EA06041C6009F104090EF1E8
:101F4000020E0AF1010A53E7001002400000FEBF32
:101F5000003C01400C3C01404438024008FCFFFFBB
:101F60000069084018BF01207047426902EA010376
:101F7000914341EA034181617047002A08BF090487
:101F80008161704701480068704700BF0CB20020B3
:101F900070477047F8B5044600684769466894F88A
:101FA0003E10FA0501D5F20501D4002503E06FF4D7
:101FB000807201254261BA0505D5F20542BF6FF472
:101FC0000072426102357A0551D5F2054FD5628D16
:101FD00094F83D30D4F830C0202908BF002A0AD038
:101FE00004356FF480624029426101D010293ED14E
:101FF00003F067FF3BE043F00801292919D194F869
:102000003D10E26A202A01D0082A1BD121291BD0C9
:10201000282929D11F49E162416821F4E06141602A
:1020200003F07EFF0020202104F093F800F0EAFC8A
:102030001DE0282B08BFBCF1210FE0D06FF48061B8
:10204000043513E021290FD11249E16221212163D6
:1020500004F0F7FA416821F4E061416003F060FFA9
:10206000204600F012FE02E06FF480614161380505
:1020700001D5F00501D42DB9F8BD20686FF40061D9
:1020800008354161206C284320642046BDE8F840B3
:1020900002F032BA0000FFFFF8B5D0F800C00446E5
:1020A000E6465EF8042FC06A94F83E5094F83D303E
:1020B000402D01D0102D0ED1DCF81870DCF8146022
:1020C000F1070CD1B0F12A4F00F01283B0F52A0FBE
:1020D00000F00E8305E0206C10B3002522E090058F
:1020E00018D4300702D5900500F18080B00702D5E2
:1020F000900500F11181DEF80000790700F400601E
:102100006BD4002840F0F482700600F1828106F062
:102110000400A0E1E06AB0F52A0F18D101201BE00D
:10212000DCF81850DCF81460B00701D5900522D413
:10213000F00601D5900570D443F00800292840F03E
:10214000AF80300600F1B28006F00400D4E0E06A0F
:10215000B0F12A4F01D10820E06294F83E004028F7
:102160002AD1216D606C00F0FE00002900F0C881CA
:1021700040F00100C4E1206C08B1DCF8185094F87C
:102180003D0000F02800282840F0EE80DEF8000036
:1021900020F48060CEF8000004F0BFFA28064FF06B
:1021A000180058BF0C20225A012020EA9501204631
:1021B000BDE8F840FFF7EDBE2069B0F5804F40F074
:1021C000DF8094F83D00616C01F0FE01212818BF0A
:1021D0000131CCF81010606B0DE0002840F08882CF
:1021E000300600F14A8106F0040067E1606B616C23
:1021F000C9B2CCF8101008B1C06B38B9A06B002878
:1022000000F07682C06B002800F07282DEF80000D9
:1022100040F40060CEF80000F8BD94F83D50DCF8C2
:10222000040020F4E060CCF8040000200090DCF80A
:1022300014000090DCF8000040F00100CCF8000031
:102240000098DCF8000020F48060CCF80000DCF896
:102250000400000540F1948145F008002A2840F070
:102260007381A06B016849686185618D19B1216C2A
:1022700041F004012164DEF8001021F40061CEF881
:102280000010FFF7E5FB012800F07A81A06BDFF872
:10229000381604F090F8002800F07281A06B6DE110
:1022A000700600F1858006F00400A7E006F0040047
:1022B000510521D500BB94F83D00618D002900F047
:1022C0001782616A11F8012BCCF81020628D013A57
:1022D000628561622928628D08BF002A40F0088269
:1022E000DEF8000020F48060CEF8000004F09BF9D6
:1022F000BDE8F84000F0C9BC002800F0F981900565
:1023000040F1F681608D002800F0F281606A10F8DB
:10231000011BCCF8101003E294F83E00E26A236B34
:1023200094F83D10222939D14028256D08BF002D91
:1023300034D0206D002840F0E6802069B0F5404F91
:1023400040F0E18000200090DCF814000090DCF800
:10235000180000900098DCF8000040F48070CCF881
:102360000000206D013075E200200090DCF81410B0
:102370000091DCF818100091009984F83C00F8BD39
:10238000206D002800F0B780206D012840F0B0815A
:10239000606C062101EAD010F130B1E0002000901D
:1023A000DCF814000090DCF8180000900098F8BDEC
:1023B00006F00400510521D500BB94F83D00618D65
:1023C000002900F09581616ADCF810200A70618DA7
:1023D00001396185616A013161622A28618D08BF16
:1023E000002940F085812068416821F480614160C6
:1023F00022202063282084F83D0000E1002800F01E
:102400007781900540F17481608D002840F08281D1
:102410006EE106F0040051051DD5E0B994F83D00C9
:10242000222840F06581608D0428C0F03581606A03
:10243000DCF810100170608D01386085606A013031
:102440006062608D032840F053812068416821F468
:1024500080614160F8BD002800F04A81900540F19C
:102460004781E26A608D042840F0CE80DCF80400E9
:1024700020F48060CCF804004CE106F00400510523
:102480001CD5D8B994F83D3094F83E00258DE26A09
:10249000212B08BF002D00F0E180212B04D0222B3E
:1024A00008BF402840F02481608D002800F03C8166
:1024B00094F83E00402800F0BD8027E7002800F097
:1024C0001781900540F11481212B40F0B180E06A22
:1024D00094F83D10212940F00B81618D00297FF493
:1024E00015AF10F5803F18BF082800F0BC802028E9
:1024F00000F0B98038E1606C062101EAD010F030BC
:10250000CCF81000F8BD608D70B1608D012840F0EE
:102510009680202A18BF082A40F01481DCF80000B9
:1025200020F48060CCF8000000200090DCF814005B
:102530000090DCF8180000900098DCF8000040F4EF
:102540000070CCF8000084E1606B01684968618527
:10255000618D19B1216C41F004012164DEF8001095
:1025600021F40061CEF80010FFF772FA012807D0BD
:10257000606BD54903F01FFF10B1606B016D884798
:10258000608DA8B120684169490704D503F0DDFCDE
:10259000618D013961854169490603D504F0A7F8C9
:1025A00003F07BFE608D18B1206C40F004002064C5
:1025B000206C20B12046BDE8F84001F09DBF2A2DD7
:1025C00002D1002003F0FDFE94F83D00282809D137
:1025D000BE482021E062002003F0BBFDBDE8F840CA
:1025E00000F010BA206B222818BF222D40F0808006
:1025F00000202021206384F83D1084F83E0020460E
:10260000BDE8F84000F040BB608D032871D1DEF8D2
:102610000000022A20F48060CEF800007AD0042A5C
:1026200078D0DCF8000020F48060CCF8000071E085
:10263000402D5DD12046BDE8F84002F009B8608D1C
:10264000022876D1102A00F2C98001209C499040CE
:10265000084200F0C3804FF48060C7E012F5803F6D
:1026600018BF082A7DD1DCF80400202120F4E060A6
:10267000CCF80400DCF8000040F40070CCF8000056
:102680000020206384F83D1003F0AEFE7AD120468E
:10269000BDE8F84000F0BAB9E16A012828D802295B
:1026A00026D0002046F2A811009086480068B0FBB2
:1026B000F1F000EB80000090009801380090009845
:1026C000002864D0DCF800008005F5D4DCF80000B8
:1026D00020F48060CCF80000DCF8040020F4E06016
:1026E000CCF80400606ADCF8101003F0C2FDD2E000
:1026F000F8BD608D02280DD1102A06D0022A68D0BC
:10270000042A66D0012A40F0A780DCF8000020F4FB
:102710008060A5E0606ADCF810100170606A01302A
:10272000606203F0BAFDF8BDDEF8000020F48060BE
:1027300070E5DCF8000040F48060CCF80000DCF8C4
:1027400004005AE012F5803F39D1DCF8000020F493
:102750008060CCF80000DCF8040000057FF5E4AEF2
:1027600032E0202A3FF47FAFDEF8000020F4E06082
:10277000CEF8000011202063002084F83E002020C5
:1027800084F83D002046BDE8F84000F03DB9206CDB
:1027900040F020002064DCF8040020F4E060CCF875
:1027A0000400606ADCF8101003F063FD6062002032
:1027B00084F83E002046BDE8F84000F089B8122BAE
:1027C00031D1012A7FF4AAAEDCF8000020F4806049
:1027D00034E0DCF8000040F4806041E0DCF8000008
:1027E00020F48060CCF800004FF40060DCF80010AA
:1027F0000843CCF80000DEF80000000520D5501E8C
:102800001F280CD8012101FA00F02C49084206D0FB
:10281000DEF8000040F48050CEF8000010E012F521
:10282000803FF5D00CE0102ACED8012024499040FA
:102830000842C9D0DCF8000040F48060CCF8000009
:1028400000200090DCF814000090DCF818000090E4
:10285000009800202065F8BDDCF8000040F400700E
:10286000CCF80000606ADCF810100170608D01384F
:102870006085616A20684A1C62620069487003F0E2
:102880000CFD2068616A426822F440724260202098
:1028900084F83D00481C6062002003F0A5FD05D1CE
:1028A00020632046BDE8F84000F0AFB81220206356
:1028B0002046BDE8F84000F0A6B800BF8180008047
:1028C0001400010098000020494400080000FFFFA8
:1028D00070470000F8B528B3044690F83D0020B9D1
:1028E00003F01BFF204600F08FF903F008FE01689B
:1028F00041F400410160016821F40041016000F0F1
:10290000B1FB3B4900253B4A88424FF0000138BFEC
:102910000121904238BF01256368374A934238BF8E
:102920000D460DB10120F8BD34494FF47A77B0FB64
:10293000F1F521684E6826F03F062E434E604FF4B5
:1029400096766E43934228BFB6FBF7F56A1C0D6A74
:1029500025F03F052A434CF6FF750A62CA69AA436F
:10296000274DAB420AD85B000138B0FBF3F00130D1
:102970006FF31F30042898BF042013E0A5680138C6
:102980003DB119256B4303F063FE0AD000F580408A
:1029900004E003EB430303F05BFE02D000F50040CC
:1029A00000E00120104304F10C06C861E0690A68E8
:1029B00022F0C0021043226A104348F2FF3208603E
:1029C000886890436CCE184310438860C86820F034
:1029D000FF0028433043C86003F0FAFC00202021A8
:1029E000206484F83D10206384F83E00F8BD00BFE9
:1029F00080841E0000093D00A186010040420F00B6
:102A0000A08601007047704770477047704700000C
:102A10002DE9FE431F4616460D4603F027FC81466E
:102A200003F047FA09D1764920460122192303F021
:102A3000E2F810B903F029F802D10220BDE8FE83C4
:102A400003F07CFB03D1136843F0010313601368A8
:102A500023F40063136022223B4603F014FC69490F
:102A60003246608DE162294620852046CDE9008905
:102A700001F03EFE08B103F04DBE208D022806D0C5
:102A800001280AD0002170B90291216808E003F002
:102A9000B1FC0A600022029207E003F034FE0292C9
:102AA00003F004FC06E0029121684A6902928969F8
:102AB000029102991A4F01042CD080B203280CD83D
:102AC00002281ED0012816D103F023FB0028D2D102
:102AD0002068616A0069087019E003F01AFB002899
:102AE000C9D12068616A0069087003F020FDE2D551
:102AF000086910700BE003F0B2FD0028BBD103F0B1
:102B00000DF803F0ACFD0028B5D103F00AFE03F088
:102B100048F8D0E7202084F83D00002003F0FEBAFA
:102B2000040001002DE9FE43994616460F4603F0C6
:102B30009DFB054603F0BDF90AD13149204601222B
:102B40001923009501F0A8FE10B902F09EFF02D1F2
:102B50000220BDE8FE8303F0F1FA03D1136843F0CD
:102B600001031360136823F40063136021224B46B2
:102B700003F089FB23493246608DE16239462085A6
:102B80002046CDE9008501F015FE08B103F0C2BD75
:102B9000218D080422D0204641462A4601F00CFF30
:102BA00010BB606A2268014611F8013B1361638D16
:102BB000013B63856162238D591E21855669760725
:102BC000E7D509044FF00001E3D0417802301161EC
:102BD000991E6062218503F060FBDAE720464146DA
:102BE0002A4601F03DFE30B1206C0428CED1206889
:102BF00003F067F9CAE703F076F9BDE8FE8300BF8A
:102C0000020010000000FFFFB0B586B001681C484C
:102C1000814233D100251B4C00F5D8300095216846
:102C200041F002012160216801F0020100910421BC
:102C300005910321CDE9035112210291C021019197
:102C4000009901A9FFF7BCF8009506210022206930
:102C500040F400102061206900F4001000900098FA
:102C60001F2000F0A1F81F2000F092F8202006217C
:102C7000002200F099F8202000F08AF806B0B0BDDC
:102C80000054004030380240704770470348044900
:102C900000780A6810440860704700BF0C000020EC
:102CA0000CB2002080B50B48016841F4007101604E
:102CB000016841F480610160016841F48071016044
:102CC000032000F08DF8002000F006F800F040F836
:102CD000002080BD003C0240B0B586B001461A20FD
:102CE0000022002400F060F81A2000F051F8144887
:102CF0000194016841F4802101606946006800F494
:102D000080200190019801A800F090F900F0B4F93A
:102D10000E4D0C490C4B40F2E732B0FBF5F0C1E927
:102D200002420C610138C1E90030084600F0B2FFF0
:102D300008B1012002E0034800F0EEFF06B0B0BD8C
:102D400044380240380C00200048014040420F0047
:102D500082B000200D4901904A6842F480424A60E6
:102D60004A6802F480420192019A009008680022A9
:102D700040F08050086008680F2100F080500090FB
:102D800000986FF0010002B000F00EB84038024029
:102D9000002806D4734602F0CBFC9E46014A42F856
:102DA0002010704700E100E070B5134B4FF0FF3585
:102DB0001B68C3F30223DC1E83F0070338BF002423
:102DC00005FA04F6B243042B28BF042305FA03F3E3
:102DD0009943A1401143BDE8704005F01BBC00BF02
:102DE00005494FF6FF030A681A4060F30A220348B8
:102DF00010430860704700BF0CED00E00000FA05CA
:102E0000F8B50446006810F0050F1ED03E4F0020B4
:102E1000834E3860FFF7B6F805463068000105D5E7
:102E2000FFF7B0F8401B0228F7D92CE0D4E90101E4
:102E300002F0DBFA05463068000105D4FFF7A2F87E
:102E4000401B0228F7D91EE02068810745D50020E5
:102E5000734E2E4F0090306C40F080503064306CD8
:102E600000F0805000900098386840F4807038601E
:102E7000FFF788F805463868C00506D4FFF782F8E2
:102E8000401B0228F7D90320F8BD306F10F44070C2
:102E900010D0E16801F4407188420BD0306F1C49BA
:102EA00001220A60002220F440700A603067306F0F
:102EB000C0071AD12068E168164AB3680A4001F4D5
:102EC000407523F4F8136FF31F31B5F5407F08BF49
:102ED0001343B360326F11433167000703D5207C81
:102EE0000B49C1F8A0030020F8BDFFF74BF80546D9
:102EF00041F28837306F8007DCD4FFF743F8411B7D
:102F00000320B942F6D9EFE768004742007000405D
:102F1000400E4742FFFCFF0F2DE9F041002857D03B
:102F20003F4B04468846D3F8000400F0070088426F
:102F300004D283F8008402F052FA49D12068810754
:102F400011D5410703D5996841F4E0519960010713
:102F500003D5996841F460419960A1689A6822F0AC
:102F6000F00211439960C0072BD102F038FA04D95E
:102F700083F8008402F033FA2AD12068410705D58E
:102F8000E1689A6822F4E05211439960000706D57F
:102F90002069996821F4604141EAC00098601C46AC
:102FA00000F07AF8A1681F4AC1F30311515CC840D0
:102FB000364908601C480068FFF78EFE0020BDE817
:102FC000F0816068811E022905D21968890107D441
:102FD0000120BDE8F08101281DD119688903F7D5CA
:102FE00099681D4621F0030108439860FEF7CAFF67
:102FF000064641F288376068A9682B4601F00C014B
:10300000B1EB800FB1D0FEF7BDFF801BB842F2D903
:103010000320BDE8F08119688907D9D5E0E700BF32
:1030200000380240388C02081000002010B50F2232
:103030004FF4E0540260164A136803F00303436040
:10304000136803F0F0038360136803F4E053C36074
:10305000136804EAD3030361D2F8F80300F0070011
:10306000086010BD09480A490A4A00680968C1F3A6
:103070008221515CC840704704480549054A0068F0
:103080000968C1F34231515CC84070479800002084
:1030900008380240488C020810B5134C606800F0F4
:1030A0000C00082804D0042814BF1048104810BD94
:1030B000226820680023400202F03F020C485CBFF7
:1030C00042F20040C0F2F4002168C1F38811A0FB75
:1030D0000101FDF7E3F821680222C1F3014102EB8F
:1030E0004101B0FBF1F010BD043802400024F400AF
:1030F00040787D012DE9FC4100285FD0044600782E
:10310000C24EC0070BD0B06800F00C00042840F09D
:103110008E803068800302D5606800284ED0207809
:10312000800718D5B06810F00C0F07D002F0D7FD5B
:1031300040F095807068400200F19180306880070F
:1031400002D5E068012839D12069316821F0F80101
:1031500041EAC00030602078000732D42078400770
:1031600042D4A7693FB302F0BAFD40F0A980012F15
:1031700024D0E169706800F480028A421ED1216A7D
:1031800000F03F028A4219D147F6C071626A0140DD
:10319000B1EB821F12D1A16A9F4A02EBC13100F448
:1031A00040326FF30F018A4208D1E16A00F070608B
:1031B000B0EB016F02D10020BDE8FC810120BDE829
:1031C000FC816169924800296AD00121C0F8801E03
:1031D000FEF7D8FE0546706F8007BFD4FEF7D2FE1B
:1031E000401B0228F7D9C9E0306C10F080580AD192
:1031F00000200190306C40F080503064306C00F062
:10320000805001900198834F3868C0053AD43868DF
:1032100040F480703860FEF7B5FE05463868C0059A
:1032200030D4FEF7AFFE401B0228F7D9A6E002F02B
:1032300056FD03D1706840023FF56BAF6068B0F592
:10324000803F07D0B0F5A02F40F08280306840F476
:1032500080203060306840F48030306082E0E06888
:1032600000284CD06A4801210160FEF78BFE05461C
:10327000306880073FF568AFFEF784FE401B0228E8
:10328000F6D97BE0A068012805D0052848D1306F29
:1032900040F004003067306F40F00100306749E0D3
:1032A0000021C0F8801EFEF76DFE0546706F800796
:1032B0007FF554AFFEF766FE401B0228F6D95DE0AD
:1032C0005349002088460866FEF75CFE0546022F3B
:1032D0000AD147463068800153D5FEF753FE411BA3
:1032E00003200229F6D967E7306880017FF563AFD4
:1032F000FEF748FE411B03200229F5D95CE744484C
:1033000000210160FEF73EFE0546306880077FF52C
:1033100022AFFEF737FE411B03200229F5D94BE708
:10332000316F002821F001013167316F21F0040174
:10333000316744D0FEF726FE054641F28837306FEC
:1033400080074BD4FEF71EFE401BB842F7D915E0AC
:103350003168002821F480313160316821F4802106
:10336000316044D0FEF70EFE0546306880033FF51D
:10337000D6AEFEF707FE401B6428F6D90320BDE851
:10338000FC811C341FCC0843234940EA821001EB26
:10339000C33140EA04606FF30F01084370600120FD
:1033A0003866FEF7EFFD0446306880013FF503AF55
:1033B000FEF7E8FD011B03200229F5D9FCE6FEF724
:1033C000E1FD054641F28837306F800706D5FEF7EC
:1033D000D9FD411B0320B942F6D9EDE6B8F1000F43
:1033E0007FF4BFAE306C20F080503064B9E6FEF759
:1033F000C9FD0546306880037FF591AEFEF7C2FD3A
:10340000411B03206429F5D9D6E600BF00380240ED
:1034100000004742007000400000FFFF006800EB22
:103420008100006D7047006800EB81000265704705
:1034300070B500684068030C00F03F05C0F3042439
:10344000C0F34236CB708D704C700E70CAB9020A50
:1034500024092D0900F00F06C0F3035002F00F02FB
:1034600044EA840445EA850500EB800002EB44024F
:1034700006EB45054A7003F00F028D7002EB400029
:10348000C870002070BD70B50068836A4B60036926
:103490006FF3DF338B600368402000EA134003F0D2
:1034A0007F05C3F30624C870C3F305408D704C70CC
:1034B0000870CAB92D091A0A1E0C03F00F0300097F
:1034C00005EB850502F00F0240EA800003EB45039F
:1034D0008B70230903EB830302EB43024A7006F06F
:1034E0000F0202EB40000870002070BD78B170B58B
:1034F0000446407F20B900202077204600F032F8B3
:1035000002F0F2FB216820B10120042223E0012017
:1035100070478868124A261D104088606DCE284387
:103520008D683043284388600B61086940EA024097
:10353000086102F01EFD04D402F0ABFA21680028F5
:10354000E2D1086C20F480200864A0690A6C104362
:10355000012208640020FF234B62627770BD00BF28
:10356000BFFF8FFFFEB500210068CDE90411CDE952
:103570000211094988420DD14FF480700490022055
:10358000019001A8FFF73CFC08B1FEF716F80348CC
:103590000121016006B080BD002800403C0E47427A
:1035A0002DE9F04102F0D0FF41D060770120207773
:1035B00032B16878E978AE78000240EA014714E059
:1035C0006E78DFF81081F00642BF06F0EF0000F1E0
:1035D0000A066E70E878C04707463046C0470002CA
:1035E00040EA0747A878C04706462068CA214162DA
:1035F0005321416220462D7803F02EF918B121683D
:103600000120042211E047EA0600216820F0C000F2
:1036100040EA4530486002F0ACFC04D402F039FACC
:1036200021680028ECD10020012202F088F8BDE8D2
:10363000F08100BF2DE9F04102F086FF48D002F092
:10364000E2FE03D098B90020E87012E008B900202B
:10365000E8702878DFF87C80C04706466878C04765
:1036600002F07EFDE978304440EA01460AE0E8785D
:1036700000046A782978AB78120242EA01411944C1
:1036800041EA0006CA20786253207862204603F09F
:10369000E3F818B121680120042217E00E482168E0
:1036A00030400860886820F480208860D5E90302F3
:1036B00010438A681043886002F05BFC04D402F077
:1036C000E8F921680028E6D10020012202F037F84D
:1036D000BDE8F081356800087F7F7F00B0B5044603
:1036E0000068C16821F0A001C160FEF74BFC0546EF
:1036F0002068C068800644BF0020B0BDFEF742FCD1
:1037000003F024F884BF0320B0BDF1E77047000048
:10371000BCB5044600684168826812F0400303D1DA
:10372000D50701D04D0617D4950701D50D0611D444
:1037300012F4B07F0DD08D060BD5EBB194F851305B
:10374000032B0ED100210191C16801918068019085
:103750000198BCBD616C00E0216C2046BDE8BC4016
:103760000847636D43F00403636500230193C36856
:10377000019383680193019B12F020030CD0636DC9
:1037800043F0010363650023019383680193036899
:1037900023F040030360019BD20508D5626D42F01F
:1037A000080262650022019282680192019A626DAC
:1037B000002ACED0426822F0E0024260012289074E
:1037C00084F8512016D002F0A3FBE06C30B10C4914
:1037D0000165FEF72BF908B101F0B7FFA06C0028D6
:1037E000B7D007490165FEF721F90028B1D001F0F3
:1037F000ACFFBCBD2046BDE8BC40FFF787BF00BFA3
:10380000576A0008F8B550B1D0F824C00446BCF19E
:10381000000F06D00021216104F1140107E0012509
:103820004EE06168B1F5827F03D004F11C010022F3
:103830000A600025A56294F8511000294FF000019C
:1038400008D1204684F8505000F03CF8D4E909C172
:1038500001F40051022284F8512094E8CC00106851
:1038600020F04000106003F4827006F40443184412
:1038700007F400631844236903F0020318446369E2
:1038800003F001031844A36903F400763044E669A9
:1038900006F038063044266A06F0800630430843B6
:1038A0000CF010011060042000EA1340084450603E
:1038B000D06920F40060D0610120656584F8510072
:1038C0002846F8BD2DE9F04F87B0044602A8142120
:1038D000FCF7D7FF2068504988423BD04F498842C7
:1038E00040F0978000264E480196416941F480518E
:1038F0004161416901F4805101910199019601688A
:1039000041F001010160006800F001000190052014
:1039100006900320CDE9046002200390A0200290CD
:10392000019802A93F48FEF74BFA404D4FF48060E2
:1039300040213F4B4FF0C06201F0EEFEC5E900327E
:10394000FCF79FFF2846FEF733F908B1FDF735FE77
:10395000232654E00026324F32494FF005084FF03D
:1039600003094FF0020A019638698B4640F4804003
:103970003861386900F480400190019801963868F8
:1039800040F004003860386800F0040001900198AD
:103990000196386840F002003860386800F0020094
:1039A00001900198CDF81880CDE90469CDF80CA0FC
:1039B0000C20029002AD01F500602946FEF700FAE6
:1039C0004FF400502946CDE90598CDE903A60290B1
:1039D0000BF58060FEF7F4F9134D4FF48060402141
:1039E00007F5215201F098FEC5E90026FCF749FFD2
:1039F0002846FEF7DDF808B1FDF7DFFD2426304646
:103A000006210022AC63A564FFF7CEF93046FFF72C
:103A1000BFF907B0BDE8F08F00380040003001402A
:103A200030380240000002406C0A00200C0A0020DE
:103A30005864024070B5134682685AB94468B4F5B8
:103A4000827F07D1042280F851200A46BDE87040E9
:103A500000F046B890F85040012C01D1022137E027
:103A600090F85140012C2DD171B36BB304241A4E40
:103A7000184D80F8514000244465C38783878163D3
:103A800084860463C3680168002B08BF2E46C0E922
:103A90001064C486B2F5004F07D10A6822F04002D4
:103AA0000A600A6822F480420A604A6842F06002B2
:103AB0004A600A68520603D40A6842F040020A606B
:103AC000002102E0022100E00121002280F85020C4
:103AD000084670BD8D6B0008716B000870470000D0
:103AE000F0B590F85040012C01D1022442E090F84A
:103AF0005150012D2DD1B9B3B2B3ABB390F85140B1
:103B0000DFF874C01D4F042C1CBF052480F8514001
:103B100000244465C386C387C6680568002E194E15
:103B200008BF6746DFF858C008BF6646C0E910679F
:103B30006E6846F0E0066E60838601638387826369
:103B40002968490613D42968002441F040012960FE
:103B50000DE04468B4F5827F08D10224042D06D11B
:103B60008568002DC7D002E0012400E00224002176
:103B700080F850102046F0BD936900086B6900087A
:103B80004D6900082569000870B502F069F804BFA6
:103B9000022070BD012084F8500094F851000128E3
:103BA0002BD161B35AB30320002384F8510063651D
:103BB000E286A2862163A363C4E91033A387E38767
:103BC000A0682268B0F5004F07D1106820F04000CF
:103BD0001060106840F480401060A06C104E0F4DD3
:103BE0000C32C0E913630F4BC0E90F35E38EFEF7CB
:103BF00063F848B102F0AEFC02E0022000E00120D0
:103C0000002184F8501070BD20680168490601D475
:103C100002F06CFB01F003FFF2E700BF816A0008CD
:103C2000636A0008876A00087047704770477047EA
:103C30007047000010B590F83C300222012B26D0CE
:103C400080F83D2002680B68546824F070041C431F
:103C50009368B2F1804F54600ED0DD4CA2420BD07D
:103C6000434CA24208D0434CA24205D0424CA2424F
:103C700002D0424CA24204D1496823F08003194388
:103C800091600022012180F83C2080F83D10104610
:103C900010BD00BF58B110B502F003FB03D102F014
:103CA0005CF900F007F802F05DFC01F053BD012063
:103CB000704700001CB500681549884211D0EF49D3
:103CC000884218BF1CBD00201824019011480168CB
:103CD00041F480310160006800F480300190019867
:103CE0000CE00020192400900A48016841F40031DA
:103CF0000160006800F40030009000982046052123
:103D00000022FFF751F82046BDE81C40FFF740B8FD
:103D1000004401404438024090F83D1001291CBF86
:103D200001207047022180F83D100068C168B0F1A1
:103D3000804F41F00101C1600ED0CD4988420BD0C7
:103D4000CC49884208D0CC49884205D0CB4988422A
:103D500002D0C649884204D1724601F024FE96463C
:103D600003D0724602F088FC96460020704700BFE0
:103D700000080040000C00400040014000000140ED
:103D8000704710B5044600680169890712D5C168FB
:103D900089070FD56FF00201016101212177806948
:103DA000800702D002F00AFB01E002F0BDF900201A
:103DB000207720680169490713D5C168490710D5E4
:103DC0006FF00401016102212177806910F4407FC6
:103DD00002D002F0F3FA01E002F0A6F90020207709
:103DE00020680169090712D5C16809070FD56FF06E
:103DF0000801016104212177C069800702D002F027
:103E0000DDFA01E002F090F90020207720680169D6
:103E1000C90613D5C168C90610D56FF0100101613C
:103E200008212177C06910F4407F02D002F0C6FA61
:103E300001E002F079F90020207720680169C907C4
:103E400009D0C168C90706D06FF0010101612046A1
:103E500000F016F920680169090609D5C16809064C
:103E600006D56FF0800101612046FFF7E0FE206873
:103E70000169490609D5C168490606D56FF04001B8
:103E80000161204600F00CF920680169890602D51D
:103E9000C168890600D410BD6FF020010161204681
:103EA000BDE81040FFF7C4BEFEB50168704881420E
:103EB00018D100210C4A00F501300091136843F03D
:103EC00004031360126802F0040200920222CDE99A
:103ED0000412CDE902214FF480710191009901A9EA
:103EE000FDF76EFF06B080BD30380240704700001D
:103EF000B0B502F0FFFA04BF0220B0BD02F0E0F955
:103F000037D8DFE801F0020A12222068294602F0C1
:103F100035FF206850F8181F0EE02068294602F08F
:103F200053FF206850F8181F16E02068294602F059
:103F300073FF206850F81C1F41F008010160016800
:103F400021F00401016029690FE02068294602F090
:103F50008BFF206850F81C1F41F40061016001686C
:103F600021F480610160296909020268114301603E
:103F70000020002184F83C10B0BD58B110B502F00B
:103F800090F903D101F0E9FF00F006F802F0EAFA37
:103F900001F0E0BB01207047E0B500683449884279
:103FA00018BF8CBD0020002201900A48016841F032
:103FB000020101600521006800F0020001900198F3
:103FC0001D20FEF7F1FE1D20BDE88C40FEF7E0BE8F
:103FD00000040040403802407047000010B504461D
:103FE000B9B1082906D0042914BF04F1410004F135
:103FF0003F0001E004F140000078012811D10220C7
:10400000082910D0042914BF84F8410084F83F0027
:104010000BE094F83E00012803D1022084F83E0012
:1040200003E0012010BD84F84000206801F044FE48
:1040300020680E49884201D101F07FFFB0F1804F26
:104040000DD00B4A90420AD00A4A904207D00A4A41
:10405000904204D0094A904201D0884202D101F036
:10406000A2FC01D002F008FB002010BD00000140BE
:104070000004004000080040000C004000400140E7
:1040800080B500680549884218BF80BDFEF7FEFD77
:104090000120BDE880401FF03FB800BF004801404C
:1040A00070477047704700007CB50446006802689E
:1040B000C1684569130744D001F4907605F0010505
:1040C000761942D0D60705D0CE0503D5266C46F02A
:1040D00001062664560704D51DB1266C46F002067B
:1040E0002664960704D51DB1266C46F004062664A6
:1040F000002B07D501F020035B1903D0236C43F09C
:1041000008032364236C002B63D0920605D589062F
:1041100003D5204602F0F4FE20684069216C00F0CF
:10412000400001F0080140184ED0204602F0C4FEC5
:104130002068416949065AD501F023FB4AD020681E
:10414000FAE7930601D58B0639D4236B012B03D1F3
:10415000D30601D5CB064FD4130601D50B060FD4D9
:10416000520636D5490634D5C16821F04001C160F8
:10417000202084F83D002046BDE87C4000F058B97E
:1041800094F83D10212924D1A168B1F5805F03D1B5
:104190002169002900F09780216A4A1C226209786F
:1041A0004160E18C0139E184090412D1C16821F038
:1041B0008001C160C16841F04001C1607CBD204602
:1041C000BDE87C4002F09CBE2046FFF76BFF00205C
:1041D00020647CBDA06B50B13F490165FDF726FC12
:1041E0000028F6D0A06B016DBDE87C400847204652
:1041F000BDE87C40FFF756BF0021019101F055FC5E
:10420000416949062CD4E18DA28DE38D002BE0D0CD
:10421000511A0A04DDD050E8030F226820F4907090
:1042200042E803030BB12068F5E7206850E8050F6A
:10423000226820F0010042E80503002BF5D1202080
:1042400084F83E0000202063206850E8030F2268B5
:1042500020F0100042E80303002BF5D189B22DE0D5
:10426000A26B11684B689DB2002DB2D0A18D8D421A
:10427000AFD2E385D269B2F5807F1CD050E8030F3E
:10428000216820F4807002F036F801D02068F5E74C
:1042900001F0BBF8FCD1206801F073FAFBD12020BB
:1042A00084F83E000020206301F031FDFCD1A06BBA
:1042B000FDF77CFBA18DE08D081A81B22046BDE898
:1042C0007C40FFF7EEBE216A31F8022B6FF35F22CC
:1042D0002162426065E700BFAD6E000890B110B585
:1042E000044690F83D0008B902F096F801F04EFE41
:1042F0002068016921F490410161416921F02A019E
:1043000002F037B901207047FEB5016818488142B4
:104310002CD10021174A00F570400191536943F0F8
:1043200010035361536903F010030193019B009143
:10433000136843F001031360126802F00102009257
:10434000072205920322CDE90312022102914FF4C4
:10435000C0610191009901A9FDF732FD25200521D9
:104360000022FEF721FD2520FEF712FD06B080BDDC
:10437000001001403038024070472DE9F8430446F0
:1043800090F83D00202807D10E4641B1174632B1C2
:1043900094F83C00012805D10220BDE8F8830120F3
:1043A000BDE8F8834FF0000901201D46C4F8409095
:1043B00084F83C00212084F83D00FDF7E3FDE7840C
:1043C0008046A784A068B0F5805F01D1206908B15C
:1043D000002701E03746002684F83C90E08CB8B115
:1043E0002046802142462B4602F042FEB8B926B153
:1043F00016F8010B2168486006E037F8021B2068B8
:1044000000266FF35F214160E08C0138E084E5E72E
:104410002046402142462B4602F02AFE10B10320DE
:10442000BDE8F883202084F83D000020BDE8F88333
:104430007047FEE70348FDF7ADBD00BF0148FDF73B
:104440002BBE00BFCC0A0020BCB5002146F2A8124A
:1044500001912849806B0968B1FBF2F123224A439C
:1044600090F83D100192019A3AB1019A013A0192F5
:10447000026812689205F6D403E0026C42F0200252
:104480000264436B0BB10022DA63846B0CB100222F
:10449000E2630268156825F480651560002545858E
:1044A00003B11D650CB100232365136823F00103DC
:1044B000136090F83D30602B05D102F0BBF8016429
:1044C000FDF766FDBCBD01F0280128290DD111685A
:1044D00041F001011160116841F480611160002117
:1044E0000163282180F83D1001E002F0A3F8FEF7F7
:1044F000EFF9BCBD9800002010B5044690F83D10BF
:1045000090F83E00402801D0102807D1222905D17B
:104510002068026822F4006202600BE001F02800CB
:10452000282806D100202063282084F83D00206838
:1045300009E020684268120503D4602901D002F026
:1045400080F8002121634168090515D494F83D10D5
:1045500060292ED1202184F83D1000212164416979
:10456000490601D501F0F1FC016821F0010101606B
:104570002046FDF70DFD34E0416821F40061416003
:10458000606B90F8351001291CD1A06B224901F015
:1045900012FF30B320684169490601D501F0D5FC0E
:1045A000016821F001010160202084F83D00A06B2A
:1045B00015E04169490601D502F099F82046FEF759
:1045C00087F90EE0144901F0F6FE50B12168606BE6
:1045D0000A6822F001020A60202184F83D10016D72
:1045E0008847206C000704D02068416821F4E0610E
:1045F000416094F83D10206C28290CD110F0040083
:1046000009D006482021E062002001F0A2FDBDE8AB
:104610001040FEF7F7B910BD494400080000FFFF45
:104620000268516949054FF000010FD56FF48063AE
:1046300053612022016380F83D2080F83E1080F80D
:104640003C10016C41F004010164012108467047EF
:1046500090F83D10026D3AB1026D012A0ED1016849
:10466000826CD2B20A6118E0C26C816C012A10D14E
:104670000268C9B21161016D023110E0026D022AB7
:1046800022D122290DD101680A6842F480720A60A1
:1046900003E00268C1F307211161016D0131016579
:1046A0007047428D21290AD14AB1426A016812F845
:1046B000013B0B614262418D0139418504E02129B2
:1046C000428D08BF002A00D0704701684A6822F472
:1046D000E0624A600A6842F400720A600021202207
:1046E000016380F83D2080F83E10FEF78FB900008E
:1046F0002DE9FC4B044600680E46DDF82890DDF8F5
:104700002C801D461746002201684B4641F480610B
:10471000016001F0F3FC48B120680068C00544BFA7
:104720004FF4007020640320BDE8FC8B06F0FE0B04
:1047300020684A4E4A464346C0F810B020463146EB
:1047400000F0E4F8E8B90020424601F0D7FF4946FE
:10475000806901900198204600F02EF958B9012D8A
:1047600004D02068390A01F0DCFE20B92068F9B2D3
:1047700001F0D7FE40B1206C042802D1206801F07E
:10478000A0FB0120BDE8FC8B206800224B4601F015
:10479000B5FC0028C0D120684BF001014A464346D1
:1047A00001612046314600F0B1F8002818BF012011
:1047B000BDE8FC8B2DE9FE43044600680F460A9DC8
:1047C0000B9E99469046002201682B4601F047FD5A
:1047D000009600F061F848B120680068C00544BF49
:1047E0004FF4007020640320BDE8FE83206807F0CA
:1047F000FE012A46334601611849204600F086F83A
:1048000008B101F087BF002032460290206841695C
:1048100002912946806902900298204600F0CCF867
:1048200030B1206C0428ECD1206801F04AFBE8E7A5
:10483000B9F1010F0AD020684FEA18213246016110
:104840002046294600F0B8F80028EAD120685FFA2F
:1048500088F101610020BDE8FE8300BF0200010075
:10486000F8B515460E4604464F1C206840694007BF
:1048700044BF0020F8BD2046FFF7D2FE50B9002FFC
:10488000F3D0FDF77FFB401BB04201D8002EECD1E6
:1048900001F01EFD0120F8BD2DE9F047DDF8209064
:1048A0001D46924680468FB201F47F045E1C18209C
:1048B000B4F5803F08BF1420D8F8001008583840DD
:1048C000C01BB0FA80F0400950451CD1002EEED03C
:1048D000FDF758FBA0EB0900A84201D8002DE6D156
:1048E00000202021C8F8300088F83D1088F83E00EC
:1048F00088F83C00D8F8400040F02000C8F840009C
:104900000120BDE8F0870020BDE8F0872DE9F041E7
:104910009846164604468FB2551C206841693940B6
:10492000B9420ED0416949050ED4002DF5D0FDF7EE
:1049300029FBA0EB08012020B1420BD8002EECD1BE
:1049400008E00020BDE8F08101F0BBFA6FF480615F
:104950004161042000212022216384F83D2084F855
:104960003E1084F83C10216C084320640120BDE80F
:10497000F08170B515460E46044620684169490627
:1049800044BF002070BD4169C9060BD4FDF7FAFA97
:10499000401BB04201D8002EEFD101F0B9FD40F02C
:1049A000200004E06FF01001416101F0B1FD2064CE
:1049B00001F0B3FE012070BDF8B515460E46044661
:1049C0004F1C20684069000644BF0020F8BD204607
:1049D000FFF726FE50B9002FF3D0FDF7D3FA401BA6
:1049E000B04201D8002EECD101F072FC0120F8BDDC
:1049F00000F022FA0028FBD11FF00EF80028FBD1AE
:104A0000124CDB4D204600F0E7F90028FAD1204691
:104A100000F0B2F90028FAD12878411E042910D8F4
:104A20003220DFE801F00306090E100002F0C8FC96
:104A300004E002F09DFB01E002F092FC4FF496705E
:104A400001E04FF4FA7022F083FCDBE7BC060020A3
:104A50002DE9F843DFF8509207462A20984615467C
:104A60000E46C847074C3846A0472846A0472B208B
:104A7000C8473046A0474046A0472C204946BDE8DD
:104A8000F8430847B14C0008BCB5A54C00F0EDFC5C
:104A900045F400650560056845F0400505601F4860
:104AA000056825F4F8450560056845F4205505605E
:104AB00003D1026842F48062026094F85100012838
:104AC000FBD120461A46FFF75FF88DF8070094F8EF
:104AD00051000128FBD1BCBDB0B5914C00F0C5FC24
:104AE00025F400650560056845F0400505600B4844
:104AF000056825F4F845056003D1026842F4806238
:104B0000026094F851000128FBD120461A46FFF7B5
:104B10003BF894F851000128FBD1B0BD5864024025
:104B200070B57E4C5D4E402100222046B0475C4D62
:104B30006420A847204640210122B0476420A847AE
:104B400058484FF47A710068C1634FF4FA70A8476F
:104B5000204608210022B047534E1120B047642060
:104B6000A8473620B047514C0020A0473A20B04714
:104B70005520A047B220B0470B20A0470B20A047EC
:104B80000020A0473320A0473320A047B720B047DC
:104B90001120A047BB20B0472F20A047C020B0471E
:104BA0002C20A047C220B0470120A047C320B04717
:104BB0000D20A047C420B0472020A047C620B04702
:104BC0000F20A047D020B047A420A047A120A04795
:104BD000D620B047A120A047E020B047F020A04752
:104BE0000420A0470720A0470920A0470720A0478E
:104BF0001320A0472520A0473320A0473C20A047F2
:104C00003420A0471020A0471020A0472920A0470B
:104C10003220A047E120B047F020A0470520A04760
:104C20000820A0470A20A0470920A0470520A04748
:104C30002520A0473220A0473B20A0473B20A0478B
:104C40001720A0471820A0472E20A0473720A047B4
:104C5000E420B0471D20A0470020A0470020A04727
:104C60002120B0472920B0472A20B0470020A04784
:104C70000020A0470020A047EF20A0472B20B047EE
:104C80000020A0471420A0470120A0472B20A047C8
:104C90002C203146BDE87040084700BF7B1F00084C
:104CA000191D0008800C0020D14C0008F54C0008AC
:104CB0001CB51A4CADF8060001F083F90DF10600A1
:104CC00001210022FFF7E0FE01F04AF81CBD00BF01
:104CD000B0B5124D0446102100222846FDF74DF9CB
:104CE000204600F007F8284610210122BDE8B04018
:104CF000FDF743B91CB5094C8DF8070001F061F9C7
:104D00000DF1070001210122FFF7E6FE044890F8AB
:104D100051100129FBD101F023F81CBD0000024015
:104D2000400B0020124D084C2878012808BF02F0E3
:104D300083FA20464FF40041FDF717F94FF47A70DB
:104D400022F006FBF0E700BF0004024015F064FB10
:104D50001BF022F81BF048F802F0E8FA044C1EF0B1
:104D600013FA022022F0F4FA204603F04BFBF6E798
:104D7000A4840020000000002DE9FE4304460DF14C
:104D8000060368203B21062200F0B4F80546E0B98E
:104D900000F054FB9FED0E0B56EC107B00F001FD74
:104DA00023F008F9E06001F002F900F0FAFC23F0CA
:104DB00001F920619DF80A009DF80B1000F0BFFF7B
:104DC00000F0EFFC23F0F6F860612846BDE8FE83B2
:104DD000747CB4386398433F2DE9FE4304460DF1DB
:104DE000060368204321062200F084F80546E0B956
:104DF00000F024FB9FED0E0B56EC107B00F0D1FC75
:104E000023F0D8F8206001F0D2F800F0CAFC23F0BB
:104E1000D1F860609DF80A009DF80B1000F08FFF3C
:104E200000F0BFFC23F0C6F8A0602846BDE8FE8372
:104E300008AC1C5A643BAF3F1CB5224C6B20802150
:104E4000A0478DF806006420FCF766FF6B20002168
:104E5000A0478DF80600032000F05DF8002000F068
:104E600055F8322000F073F838200021A0478DF863
:104E700006006A200021A0478DF8060023200021AB
:104E8000A0478DF8060037208021A0478DF8060046
:104E9000752000F019F88DF807009DF807006828C4
:104EA0000CD16B20012100F069F86C200021002456
:104EB00000F064F8322000F04AF800E001242046B7
:104EC0001CBD00BF7D4F00081FB5024664200124B1
:104ED0000DF10F0101230290CF48CDE90014D0213C
:104EE000FDF796FD9DF80F10002818BF2146C8B2A7
:104EF00004B010BD1FB501F038F9C7482246FDF7D0
:104F000087FD002818BF012004B010BDC000C1B249
:104F10001C2000F033B8C000C1B21B2000F02EB836
:104F2000BB2801D901210FE0612801D902210BE042
:104F3000292801D9032107E0132801D9042103E01E
:104F40000621092888BF05211A2000F017B810B5DE
:104F500004464FF47A70B4F57A7F28BF0446042CD7
:104F600098BF0424B0FBF4F00138C1B2192000F05E
:104F700005F86008BDE81040FFF7D2BFF8B502465B
:104F800064208DF80F1001210DF10F030290A2484B
:104F9000CDE90031D0210123FDF7C4FD002818BF61
:104FA000012004B080BD00BF1FB501F0DEF89A48B3
:104FB0002246FDF7B7FD002818BF012004B010BD40
:104FC000BFB51348144B134A002401254FF4803118
:104FD0000394C46280F820400576836280F83040F4
:104FE000C561C0E90021C0E90244C0E90445FCF7FD
:104FF00003FC08B1FCF7E1FA0B206946CDE9015446
:1050000000900348FCF7DEFA08B1FCF7D6FABFBD02
:10501000C4090020002001400100000FE0B500207D
:105020006D4901900A6842F480020A600A6802F43D
:1050300080020192019A00900868002240F400105A
:1050400008600868052100F40010009000980F2007
:10505000FDF7AAFE0F20FDF79BFE3B200521002255
:10506000FDF7A2FE3B20BDE88C40FDF791BE00BFDE
:10507000B0B50B480B4A0C4C0021A0470B4D0D4A14
:10508000002128600A48A04768600B480B4A0021AD
:10509000A047A8600A480B4A0021A047E860B0BDBD
:1050A000254D000894920208354802088402002029
:1050B000F1490008748C02084D4D0008B8920208AE
:1050C000C5120008508C02082DE9F04786B0002177
:1050D0004148434F2125012405910091026842F087
:1050E00004020260026802F004020092009A009139
:1050F000026842F080020260026802F080020092C0
:10510000009A0091026842F001020260026802F017
:1051100001020092009A00910168012241F002010F
:1051200001602121006800F00200009000982B48E7
:1051300000F5006882464046B847504648210122A3
:10514000B847504610210022B8470AF5806641F260
:10515000010101223046B84730464CF20C41002292
:10516000B8474FF00309CDE901541E4D4046CDE943
:10517000034901AF3946A847582000F015F95046B9
:10518000A8474DF20D4000F00FF93046A847C02067
:105190004FF4041639460394019040460296A847FE
:1051A0004FF480503946CDE9026401905046A8473B
:1051B000172005210022FDF7F7FD1720FDF7E8FD78
:1051C000282006210022FDF7EFFD2820FDF7E0FD55
:1051D00006B0BDE8F08700BF303802400000024052
:1051E0007B1F0008C11D000810B50B480B4B0C4C71
:1051F00000214FF48042C0E90043C0E90211C0E938
:105200000421C0E906110162FDF764FB18B1BDE895
:105210001040FCF7D2B910BDCC0A0020A0860100D6
:105220000054004010B51348134C0021FF227F2387
:10523000C0E90041C0E90232C0E904118161FEF712
:1052400055F908B1FCF7B9F90A480121FEF7E6F86B
:1052500047F27771884208BF10BD0648012147F226
:105260007772FEF7E0F805480549BDE8104001F007
:105270002DBB00BF200B0020002800402000002094
:105280001C00002010B50548054B00F094F818B13B
:10529000BDE81040FCF791B910BD00BF400B0020E5
:1052A0000030014010B50548054B00F084F818B1F6
:1052B000BDE81040FCF781B910BD00BF980B00207D
:1052C0000038004010B50B4880210B4C42F2CF0350
:1052D00040F2E73281610021C0E90043C0E90212D7
:1052E0000161FEF7D7FC18B1BDE81040FCF765B9C5
:1052F00010BD00BFF00B00200044014010B58AB083
:1053000000241C21CDE9084401A8FBF7BAFA15488E
:105310008021154B5322816140F2E731C0E9003210
:105320000461C0E90241FEF728FE08B1FCF745F927
:105330000C4808A9FEF77EFC08B1FCF73EF90020F6
:1053400008220590CDE9020060200190054801A9DE
:10535000FEF7CEFD08B1FCF730F90248FEF7A4FDD8
:105360000AB010BD800C00200004004010B50B48AE
:105370000B4C00210C224FF4E133C0E90043C0E99B
:105380000211C0E90412C0E90611FEF7A7FF18B127
:10539000BDE81040FCF711B910BD00BF100D002092
:1053A00000100140FEE7FEE73946CDF81090CDE948
:1053B0000244019070474FF4827200214FF4007450
:1053C000C0E900320A22C0E90211C0E90411C0E9B3
:1053D0000641C0E90811C0E90A12FEF713BAD3F872
:1053E000000400F0070040457047090741EA8010BB
:1053F000C6F8840001203860FCF7C4BD002084F8A2
:105400003400012084F835007047206850E8050F0B
:10541000216820F0010041E80502002A70472021A0
:105420000122FCF7AABD10780122FFF7BDBDB0FB39
:10543000F1F0022140BAADF8060070479DF8060071
:105440009DF807109DF808909DF80980000200B2B1
:10545000084423F088B8206820F0C000206020684D
:1054600040F040002060204628470B460146002AB5
:105470002068056825F04005056005687047012231
:105480004FF47A73FEF779BFC868897E01F03F0157
:1054900001EB4101890016F069BAE068006819F073
:1054A0002BB84DF808ED404609F078FF00285DF86C
:1054B00008EB7047081A01B200EBE13282EAE131F1
:1054C0000FFA89F209EBE23389B283EAE23292B24F
:1054D0009142704720464FF480317047024638466B
:1054E000294604F057BFBBF81600BBF81A10728BA0
:1054F000009CB146081A0221013000B290FBF1F085
:10550000F18A511A6FF00102013109B291FBF2F1F7
:105510000844704700EB8000502101EB4000A021BF
:1055200090FBF1F070472A461BF0C3BB096801EB02
:105530008002526841F82020013070470168C96834
:105540008A6922F002028A617047A4EB0B0110FB0A
:1055500005F001EBD030A8F8020006F15A0000B2C5
:105560003847404613F032BEBBF80010BBF80420A9
:10557000511A013109B2081A022190FBF1F0BDF86D
:10558000A810084470474DF808ED81EA5221C9B2CD
:105590001EF013FA0AF808005DF808EB704798F857
:1055A000140000F01F00704752F80C1C022332F860
:1055B000042C009070470446D0E90B204FF480651E
:1055C00000210023009516F0E0B80446006808307A
:1055D00016F0F4B853EC102B23F068B8B2FA82F44A
:1055E000C4F11A03DA4082F02003C4F119027047B3
:1055F0000446D01A05B2002D7047504609F0CDBFC1
:1056000020464FF4003118F004BA204618F074BF59
:105610000398049D069AA9EB0A01009020462B46A8
:105620001EF015B828464FF4802118F095BB20468F
:105630001A21324612F01CBD606A15F0B1BA8DF81D
:1056400044002046CDE9009A07F01CBF002118F065
:10565000A2BAE868042200F1A001204630470246C1
:1056600030460021504742460144ADF84810BDF88D
:105670004C100844BDF84A10ADF84C00BAF80200CE
:105680000144ADF84A10BDF84E1008444946ADF843
:105690004E0070476FF30F0119447047BDF9580071
:1056A000BDF95A10149A0A9B7047011BADF8E0101F
:1056B000291908445318ADF8E400101BADF8E63082
:1056C000ADF8E200704709B21BB2019030460DF010
:1056D0001BBD4618BDF87400ADF87C00BDF878001D
:1056E000ADF8800002208DF86800704720461FF05A
:1056F000F1BC251D284621F0E7BCDAF80C0014F0B7
:10570000DDBE284621460022304728462146002299
:105710003847214600224847C5E90216286105F1AD
:10572000140014217047044690F834000128704793
:1057300000F01F010122400902FA01F17047FF2326
:105740004B620021217762777047606D40F0400026
:1057500060657047012084F8460084F83E0084F8B4
:105760003F0084F8400084F8410084F8420084F847
:10577000430084F8440084F8450084F83D0000208C
:1057800010BD50E8050F216820F0400041E80502F7
:10579000002A704701218DF802004FF40B601EF0C3
:1057A00089BF3A46334622F081BF20464FF48061DC
:1057B0000122284702F03F0202EB420270470F210C
:1057C00012F056BC4DF808ED09F0E8FD00285DF830
:1057D00008EB704702220023091A013109B291FB3C
:1057E000F2F141F6FF720C18601C01B238467047A6
:1057F000ADF88C10618B0144ADF89210E18A081A63
:1058000070473046294618F05FB8BBF81400BBF863
:105810001810328B009CB146081A0221013000B2E8
:1058200090FBF1F0B18A511A6FF00102013109B217
:1058300091FBF2F10844704700EB80004000F02833
:10584000704720F4FC72083000F4FC718818608402
:10585000E06816F08BB84FF6FF7100221AF02AB9F3
:105860000BEB090110FB05F001EBD030A8F80400A8
:1058700030B23847BBF800100844BBF80410081ACF
:10588000BDF8A810084401307047514622464B46E7
:10589000009040460DF040BA216AA26A521A504365
:1058A00001EBA020BCBD20F007040C9894ED000B88
:1058B00000900E98CDE90105304670474FF4003155
:1058C00017F042BFAAF834108BB210F8133013F05F
:1058D000280F704720464FF4003118F037B9ADF863
:1058E000460028440138ADF84A0070470798089AE6
:1058F000069BAAEB0701009030461DF0A8BE50465B
:105900004FF4403170470146B4F8405020461CF037
:10591000F1BD384618F0F0BD384618F0EDBDF0681E
:10592000042200F1A001204638475A3000B21DF091
:1059300007BEBDF86C00081A01300FFA80FA7047F4
:10594000BDF8E2000BF1010B0130ADF8E200BDF84B
:10595000E6000130ADF8E60070471598ADF88250CA
:10596000ADF87E50002870470299404621F01CBDDA
:1059700000EB800001EB8000294621F0F4BB6FF0C2
:10598000050070474FF6FF711BF015BC0446284612
:105990000E4623F077B853EC102B22F03DBB204687
:1059A000642101F0BBB8816801F007010629704746
:1059B000016851E8051F026821F0010142E8051362
:1059C000002B7047D5E900100078897CFFF7ECBA0E
:1059D00058464FF4007118F0FABA384632462B4652
:1059E000484700244EF201094EF2010680467047F6
:1059F000204619F0EDBABDF83E00BDF84210081A75
:105A000001307047E8684FF4803200F10801204609
:105A1000304700210CF09EBF23460DF011B94168BC
:105A200041F020014160416841F0020141600020E5
:105A30007047C6F164014843642190FBF1F0704760
:105A4000CDF808805846009C17F0D3B90CB20CF082
:105A5000FFB8013109B291FBF2F1704720464FF4D3
:105A6000E021704768780A210228704704EBD030A3
:105A7000BAF80240ADF8500005987047BDF97410AF
:105A80005846224633460DF0DBB894F83C00012816
:105A900070472046FDF722BE002001902068C168B3
:105AA00001918068019001987047016801914168F7
:105AB000019101997047D6E900022346417D107893
:105AC000EAB27047521A013212B292FBF3F2114459
:105AD000704742F2D1750646401BB0FA80F070471D
